{
  "contractName": "mytokensale",
  "abi": [
    {
      "inputs": [
        {
          "internalType": "contract mytoken",
          "name": "_tokencontract",
          "type": "address"
        },
        {
          "internalType": "uint256",
          "name": "_tokenprice",
          "type": "uint256"
        }
      ],
      "stateMutability": "nonpayable",
      "type": "constructor"
    },
    {
      "anonymous": false,
      "inputs": [
        {
          "indexed": true,
          "internalType": "address",
          "name": "_buyer",
          "type": "address"
        },
        {
          "indexed": false,
          "internalType": "uint256",
          "name": "_amount",
          "type": "uint256"
        }
      ],
      "name": "Sell",
      "type": "event"
    },
    {
      "inputs": [],
      "name": "salecontract",
      "outputs": [
        {
          "internalType": "contract mytokensale",
          "name": "",
          "type": "address"
        }
      ],
      "stateMutability": "view",
      "type": "function",
      "constant": true
    },
    {
      "inputs": [],
      "name": "tokencontract",
      "outputs": [
        {
          "internalType": "contract mytoken",
          "name": "",
          "type": "address"
        }
      ],
      "stateMutability": "view",
      "type": "function",
      "constant": true
    },
    {
      "inputs": [],
      "name": "tokenprice",
      "outputs": [
        {
          "internalType": "uint256",
          "name": "",
          "type": "uint256"
        }
      ],
      "stateMutability": "view",
      "type": "function",
      "constant": true
    },
    {
      "inputs": [],
      "name": "tokensold",
      "outputs": [
        {
          "internalType": "uint256",
          "name": "",
          "type": "uint256"
        }
      ],
      "stateMutability": "view",
      "type": "function",
      "constant": true
    },
    {
      "inputs": [
        {
          "internalType": "uint256",
          "name": "_number",
          "type": "uint256"
        }
      ],
      "name": "buytoken",
      "outputs": [],
      "stateMutability": "payable",
      "type": "function",
      "payable": true
    },
    {
      "inputs": [],
      "name": "endsale",
      "outputs": [],
      "stateMutability": "nonpayable",
      "type": "function"
    }
  ],
  "bytecode": "0x608060405266038d7ea4c6800060035534801561001b57600080fd5b506040516109e03803806109e0833981810160405281019061003d9190610159565b336000806101000a81548173ffffffffffffffffffffffffffffffffffffffff021916908373ffffffffffffffffffffffffffffffffffffffff160217905550600160009054906101000a900473ffffffffffffffffffffffffffffffffffffffff16915060035490505050610199565b600080fd5b600073ffffffffffffffffffffffffffffffffffffffff82169050919050565b60006100de826100b3565b9050919050565b60006100f0826100d3565b9050919050565b610100816100e5565b811461010b57600080fd5b50565b60008151905061011d816100f7565b92915050565b6000819050919050565b61013681610123565b811461014157600080fd5b50565b6000815190506101538161012d565b92915050565b600080604083850312156101705761016f6100ae565b5b600061017e8582860161010e565b925050602061018f85828601610144565b9150509250929050565b610838806101a86000396000f3fe6080604052600436106100555760003560e01c806319bece1b1461005a578063309db8af1461007657806338c40595146100a157806381cf923a146100cc578063c8b335a4146100f7578063d0bd4c731461010e575b600080fd5b610074600480360381019061006f919061048a565b610139565b005b34801561008257600080fd5b5061008b610329565b6040516100989190610536565b60405180910390f35b3480156100ad57600080fd5b506100b661034f565b6040516100c39190610560565b60405180910390f35b3480156100d857600080fd5b506100e1610355565b6040516100ee919061059c565b60405180910390f35b34801561010357600080fd5b5061010c61037b565b005b34801561011a57600080fd5b50610123610412565b6040516101309190610560565b60405180910390f35b61014581600354610418565b341461015057600080fd5b80600160009054906101000a900473ffffffffffffffffffffffffffffffffffffffff1673ffffffffffffffffffffffffffffffffffffffff16633d64125b306040518263ffffffff1660e01b81526004016101ac91906105d8565b60206040518083038186803b1580156101c457600080fd5b505afa1580156101d8573d6000803e3d6000fd5b505050506040513d601f19601f820116820180604052508101906101fc9190610608565b101561020757600080fd5b600160009054906101000a900473ffffffffffffffffffffffffffffffffffffffff1673ffffffffffffffffffffffffffffffffffffffff1663a9059cbb33836040518363ffffffff1660e01b8152600401610264929190610635565b602060405180830381600087803b15801561027e57600080fd5b505af1158015610292573d6000803e3d6000fd5b505050506040513d601f19601f820116820180604052508101906102b69190610696565b6102bf57600080fd5b80600460008282546102d191906106f2565b925050819055503373ffffffffffffffffffffffffffffffffffffffff167f5e5e995ce3133561afceaa51a9a154d5db228cd7525d34df5185582c18d3df098260405161031e9190610560565b60405180910390a250565b600260009054906101000a900473ffffffffffffffffffffffffffffffffffffffff1681565b60045481565b600160009054906101000a900473ffffffffffffffffffffffffffffffffffffffff1681565b60008054906101000a900473ffffffffffffffffffffffffffffffffffffffff1673ffffffffffffffffffffffffffffffffffffffff163373ffffffffffffffffffffffffffffffffffffffff16146103d357600080fd5b60008060009054906101000a900473ffffffffffffffffffffffffffffffffffffffff1690508073ffffffffffffffffffffffffffffffffffffffff16ff5b60035481565b6000808214806104405750828283856104319190610748565b92508261043e91906107d1565b145b61044957600080fd5b92915050565b600080fd5b6000819050919050565b61046781610454565b811461047257600080fd5b50565b6000813590506104848161045e565b92915050565b6000602082840312156104a05761049f61044f565b5b60006104ae84828501610475565b91505092915050565b600073ffffffffffffffffffffffffffffffffffffffff82169050919050565b6000819050919050565b60006104fc6104f76104f2846104b7565b6104d7565b6104b7565b9050919050565b600061050e826104e1565b9050919050565b600061052082610503565b9050919050565b61053081610515565b82525050565b600060208201905061054b6000830184610527565b92915050565b61055a81610454565b82525050565b60006020820190506105756000830184610551565b92915050565b600061058682610503565b9050919050565b6105968161057b565b82525050565b60006020820190506105b1600083018461058d565b92915050565b60006105c2826104b7565b9050919050565b6105d2816105b7565b82525050565b60006020820190506105ed60008301846105c9565b92915050565b6000815190506106028161045e565b92915050565b60006020828403121561061e5761061d61044f565b5b600061062c848285016105f3565b91505092915050565b600060408201905061064a60008301856105c9565b6106576020830184610551565b9392505050565b60008115159050919050565b6106738161065e565b811461067e57600080fd5b50565b6000815190506106908161066a565b92915050565b6000602082840312156106ac576106ab61044f565b5b60006106ba84828501610681565b91505092915050565b7f4e487b7100000000000000000000000000000000000000000000000000000000600052601160045260246000fd5b60006106fd82610454565b915061070883610454565b9250827fffffffffffffffffffffffffffffffffffffffffffffffffffffffffffffffff0382111561073d5761073c6106c3565b5b828201905092915050565b600061075382610454565b915061075e83610454565b9250817fffffffffffffffffffffffffffffffffffffffffffffffffffffffffffffffff0483118215151615610797576107966106c3565b5b828202905092915050565b7f4e487b7100000000000000000000000000000000000000000000000000000000600052601260045260246000fd5b60006107dc82610454565b91506107e783610454565b9250826107f7576107f66107a2565b5b82820490509291505056fea2646970667358221220b4be05d4b00622c553e7ba90a4026df0c58aeec16756d34d0be5c671b88e4c3b64736f6c63430008090033",
  "immutableReferences": {},
  "source": "//SPDX-License-Identifier: MIT\r\npragma solidity ^0.8.9;\r\nimport \"./mytoken.sol\";\r\n\r\ncontract mytokensale{\r\n address payable  admin;\r\n mytoken public tokencontract;\r\n mytokensale public salecontract;\r\n uint public tokenprice=1000000000000000;\r\n uint public tokensold;\r\n\r\n event Sell(\r\n     address indexed _buyer,\r\n     uint _amount\r\n );\r\n\r\n constructor(mytoken _tokencontract,uint _tokenprice){\r\n      admin=payable(msg.sender); \r\n     _tokencontract=tokencontract;\r\n     _tokenprice=tokenprice;\r\n }\r\n\r\n //or we can use library math\r\n function multiply(uint x,uint y)internal pure returns(uint z){\r\n     require(y==0||(z=x*y)/y==x);\r\n } \r\n\r\n function buytoken(uint _number)public payable{\r\n     //value is equal to tokens\r\n     require(msg.value == multiply(_number,tokenprice));\r\n     //contract have enough balance\r\n     require(tokencontract.balanceof(address(this))>=_number);\r\n     //transfer the tokens\r\n     require(tokencontract.transfer( msg.sender, _number));\r\n\r\n     \r\n     //token sold\\\r\n     tokensold += _number;\r\n     emit Sell(msg.sender, _number);\r\n }\r\n\r\n function endsale()public {\r\n     //only admin\r\n     require(msg.sender==admin);\r\n     \r\n     \r\n     //transfer remaining token to admin\r\n    //  uint num=999990;\r\n    //   require(tokencontract.transfer(admin, num));\r\n    \r\n    \r\n     //destroy the contract\r\n      address payable addr = payable(address(admin));\r\n        selfdestruct(addr);\r\n       \r\n\r\n\r\n }\r\n}",
  "sourcePath": "D:/Users/Akshit/Documents/erc20/contracts/mytokensale.sol",
  "compiler": {
    "name": "solc",
    "version": "0.8.9+commit.e5eed63a.Emscripten.clang"
  },
  "schemaVersion": "3.2.3",
  "updatedAt": "2021-11-14T19:31:09.476Z",
  "networkType": "ethereum",
  "devdoc": {
    "kind": "dev",
    "methods": {},
    "version": 1
  },
  "userdoc": {
    "kind": "user",
    "methods": {},
    "version": 1
  }
}